:020000040800F2
:1000000000500020552C0008752B0008772B0008A5
:10001000792B00087B2B00087D2B000800000000D6
:100020000000000000000000000000007F2B00081E
:10003000812B000800000000832B0008852B00089E
:100040009D2C00089D2C00089D2C00089D2C00086C
:100050009D2C00089D2C00088D2B0008972B000874
:100060009D2C00089D2C00089D2C00089D2C00084C
:100070009D2C00089D2C00089D2C00089D2C00083C
:100080009D2C00089D2C00089D2C00089D2C00082C
:100090009D2C00089D2C00089D2C0008A12B000819
:1000A0009D2C0008AD2B00089D2C00089D2C0008FD
:1000B0009D2C00089D2C00089D2C00089D2C0008FC
:1000C0009D2C00089D2C00089D2C00089D2C0008EC
:1000D0009D2C00089D2C0008BD2B00089D2C0008BD
:1000E0009D2C00089D2C00089D2C0008000000009D
:1000F0000000000000000000000000000000000000
:0C01000000000000000000005FF808F1A3
:10010C0010B5054C237833B9044B13B10448AFF345
:10011C0000800123237010BDE801002000000000C6
:10012C009C36000808B5034B1BB103490348AFF3D9
:10013C00008008BD00000000EC0100209C36000887
:10014C0081F0004102E000BF83F0004330B54FEA7C
:10015C0041044FEA430594EA050F08BF90EA020FE9
:10016C001FBF54EA000C55EA020C7FEA645C7FEA7C
:10017C00655C00F0E2804FEA5454D4EB5555B8BF9F
:10018C006D420CDD2C4480EA020281EA030382EA10
:10019C00000083EA010180EA020281EA0303362DA2
:1001AC0088BF30BD11F0004F4FEA01314FF4801C75
:1001BC004CEA113102D0404261EB410113F0004F87
:1001CC004FEA03334CEA133302D0524263EB43033E
:1001DC0094EA050F00F0A780A4F10104D5F1200EDC
:1001EC000DDB02FA0EFC22FA05F2801841F1000137
:1001FC0003FA0EF2801843FA05F359410EE0A5F10B
:10020C0020050EF1200E012A03FA0EFC28BF4CF03B
:10021C00020C43FA05F3C01851EBE37101F00045F1
:10022C0007D54FF0000EDCF1000C7EEB00006EEBFE
:10023C000101B1F5801F1BD3B1F5001F0CD3490888
:10024C005FEA30004FEA3C0C04F101044FEA4452DF
:10025C0012F5800F80F09A80BCF1004F08BF5FEA66
:10026C00500C50F1000041EB045141EA050130BD46
:10027C005FEA4C0C404141EB010111F4801FA4F1E9
:10028C000104E9D191F0000F04BF01460020B1FA3E
:10029C0081F308BF2033A3F10B03B3F120020CDA76
:1002AC000C3208DD02F1140CC2F10C0201FA0CF054
:1002BC0021FA02F10CE002F11402D8BFC2F1200CB9
:1002CC0001FA02F120FA0CFCDCBF41EA0C0190406F
:1002DC00E41AA2BF01EB0451294330BD6FEA0404B8
:1002EC001F3C1CDA0C340EDC04F11404C4F12002A3
:1002FC0020FA04F001FA02F340EA030021FA04F3B5
:10030C0045EA030130BDC4F10C04C4F1200220FA0B
:10031C0002F001FA04F340EA0300294630BD21FA49
:10032C0004F0294630BD94F0000F83F4801306BF0F
:10033C0081F480110134013D4EE77FEA645C18BF03
:10034C007FEA655C29D094EA050F08BF90EA020F9A
:10035C0005D054EA000C04BF1946104630BD91EA92
:10036C00030F1EBF0021002030BD5FEA545C05D195
:10037C004000494128BF41F0004130BD14F58004D4
:10038C003CBF01F5801130BD01F0004545F0FE4148
:10039C0041F470014FF0000030BD7FEA645C1ABF7D
:1003AC00194610467FEA655C1CBF0B46024650EAB4
:1003BC00013406BF52EA033591EA030F41F40021E0
:1003CC0030BD00BF90F0000F04BF0021704730B566
:1003DC004FF4806404F132044FF000054FF000013B
:1003EC0050E700BF90F0000F04BF0021704730B5FC
:1003FC004FF4806404F1320410F0004548BF4042D1
:10040C004FF000013EE700BF42004FEAE2014FEA25
:10041C0031014FEA02701FBF12F07F4393F07F4F00
:10042C0081F06051704732F07F4208BF704793F003
:10043C007F4F04BF41F40021704730B54FF4607416
:10044C0001F0004521F000411CE700BF50EA010219
:10045C0008BF704730B54FF000050AE050EA0102C2
:10046C0008BF704730B511F0004502D5404261EB32
:10047C0041014FF4806404F132045FEA915C3FF473
:10048C00D8AE4FF003025FEADC0C18BF03325FEA10
:10049C00DC0C18BF033202EBDC02C2F1200300FAC1
:1004AC0003FC20FA02F001FA03FE40EA0E0021FAE6
:1004BC0002F11444BDE600BF70B54FF0FF0C4CF4D4
:1004CC00E06C1CEA11541DBF1CEA135594EA0C0F86
:1004DC0095EA0C0F00F0DEF82C4481EA030621EAC1
:1004EC004C5123EA4C5350EA013518BF52EA0335FC
:1004FC0041F4801143F4801338D0A0FB02CE4FF0AE
:10050C000005E1FB02E506F00042E0FB03E54FF0DD
:10051C000006E1FB03569CF0000F18BF4EF0010ED5
:10052C00A4F1FF04B6F5007F64F5407404D25FEAD1
:10053C004E0E6D4146EB060642EAC62141EA555184
:10054C004FEAC52040EA5E504FEACE2EB4F1FD0CC6
:10055C0088BFBCF5E06F1ED8BEF1004F08BF5FEA44
:10056C00500E50F1000041EB045170BD06F00046F6
:10057C0046EA010140EA020081EA0301B4EB5C04A3
:10058C00C2BFD4EB0C0541EA045170BD41F480119B
:10059C004FF0000E013C00F3AB8014F1360FDEBFC0
:1005AC00002001F0004170BDC4F10004203C35DA9C
:1005BC000C341BDC04F11404C4F1200500FA05F31F
:1005CC0020FA04F001FA05F240EA020001F00042C0
:1005DC0021F0004110EBD37021FA04F642EB060136
:1005EC005EEA430E08BF20EAD37070BDC4F10C0460
:1005FC00C4F1200500FA04F320FA05F001FA04F224
:10060C0040EA020001F0004110EBD37041F100010F
:10061C005EEA430E08BF20EAD37070BDC4F120051A
:10062C0000FA05F24EEA020E20FA04F301FA05F282
:10063C0043EA020321FA04F001F0004121FA04F22A
:10064C0020EA020000EBD3705EEA430E08BF20EAFA
:10065C00D37070BD94F0000F0FD101F00046400034
:10066C0041EB010111F4801F08BF013CF7D041EAB6
:10067C00060195F0000F18BF704703F000465200BA
:10068C0043EB030313F4801F08BF013DF7D043EA8B
:10069C000603704794EA0C0F0CEA135518BF95EA41
:1006AC000C0F0CD050EA410618BF52EA4306D1D1C8
:1006BC0081EA030101F000414FF0000070BD50EAE7
:1006CC00410606BF1046194652EA430619D094EA71
:1006DC000C0F02D150EA013613D195EA0C0F05D15B
:1006EC0052EA03361CBF104619460AD181EA0301AF
:1006FC0001F0004141F0FE4141F470014FF0000067
:10070C0070BD41F0FE4141F4780170BD70B54FF001
:10071C00FF0C4CF4E06C1CEA11541DBF1CEA135581
:10072C0094EA0C0F95EA0C0F00F0A7F8A4EB050463
:10073C0081EA030E52EA03354FEA013100F088805A
:10074C004FEA03334FF0805545EA131343EA126323
:10075C004FEA022245EA111545EA10654FEA0026D8
:10076C000EF000419D4208BF964244F1FD0404F591
:10077C00407402D25B084FEA3202B61A65EB0305ED
:10078C005B084FEA32024FF480104FF4002CB6EBAA
:10079C00020E75EB030E22BFB61A754640EA0C002A
:1007AC005B084FEA3202B6EB020E75EB030E22BF6A
:1007BC00B61A754640EA5C005B084FEA3202B6EBAB
:1007CC00020E75EB030E22BFB61A754640EA9C006A
:1007DC005B084FEA3202B6EB020E75EB030E22BF3A
:1007EC00B61A754640EADC0055EA060E18D04FEAF8
:1007FC00051545EA16754FEA06164FEAC30343EA98
:10080C0052734FEAC2025FEA1C1CC0D111F4801F64
:10081C000BD141EA00014FF000004FF0004CB6E75D
:10082C0011F4801F04BF01430020B4F1FD0C88BFFC
:10083C00BCF5E06F3FF6AFAEB5EB030C04BFB6EB07
:10084C00020C5FEA500C50F1000041EB045170BDFA
:10085C000EF0004E4EEA113114EB5C04C2BFD4EB27
:10086C000C0541EA045170BD41F480114FF0000EAB
:10087C00013C90E645EA060E8DE60CEA135594EA27
:10088C000C0F08BF95EA0C0F3FF43BAF94EA0C0F2A
:10089C000AD150EA01347FF434AF95EA0C0F7FF49F
:1008AC0025AF104619462CE795EA0C0F06D152EAF3
:1008BC0003353FF4FDAE1046194622E750EA4106D7
:1008CC0018BF52EA43067FF4C5AE50EA41047FF4E8
:1008DC000DAF52EA43057FF4EBAE12E74FEA41024B
:1008EC00B2F1E04324BFB3F5001CDCF1FE5C0DD982
:1008FC0001F0004C4FEAC0024CEA5070B2F1004FCC
:10090C0040EB830008BF20F00100704711F0804FCE
:10091C0021D113F13872BCBF01F00040704741F493
:10092C0080114FEA5252C2F11802C2F1200C10FA97
:10093C000CF320FA02F018BF40F001004FEAC1237B
:10094C004FEAD32303FA0CFC40EA0C0023FA02F31F
:10095C004FEA4303CCE77FEA625307D150EA0133F5
:10096C001EBF4FF0FE4040F44000704701F00040C5
:10097C0040F0FE4040F40000704700BF80F00040A3
:10098C0002E000BF81F0004142001FBF5FEA41035B
:10099C0092EA030F7FEA226C7FEA236C6AD04FEA5B
:1009AC001262D2EB1363C1BFD218414048404140A0
:1009BC00B8BF5B42192B88BF704710F0004F40F452
:1009CC00000020F07F4018BF404211F0004F41F46E
:1009DC00000121F07F4118BF494292EA030F3FD03A
:1009EC00A2F1010241FA03FC10EB0C00C3F120034D
:1009FC0001FA03F100F0004302D5494260EB4000DC
:100A0C00B0F5000F13D3B0F1807F06D340084FEA46
:100A1C00310102F10102FE2A51D2B1F1004F40EB3B
:100A2C00C25008BF20F0010040EA030070474900A3
:100A3C0040EB000010F4000FA2F10102EDD1B0FA6E
:100A4C0080FCACF1080CB2EB0C0200FA0CF0AABF63
:100A5C0000EBC25052421843BCBFD0401843704701
:100A6C0092F0000F81F4000106BF80F40000013207
:100A7C00013BB5E74FEA41037FEA226C18BF7FEADE
:100A8C00236C21D092EA030F04D092F0000F08BF20
:100A9C000846704790EA010F1CBF0020704712F007
:100AAC007F4F04D1400028BF40F00040704712F146
:100ABC0000723CBF00F50000704700F0004343F0AB
:100ACC00FE4040F4000070477FEA226216BF0846E1
:100ADC007FEA23630146420206BF5FEA412390EAA4
:100AEC00010F40F4800070474FF0000304E000BF9A
:100AFC0010F0004348BF40425FEA000C08BF70474B
:100B0C0043F0964301464FF000001CE050EA01020E
:100B1C0008BF70474FF000030AE000BF50EA010223
:100B2C0008BF704711F0004302D5404261EB410110
:100B3C005FEA010C02BF84460146002043F0B64335
:100B4C0008BFA3F18053A3F50003BCFA8CF2083A5A
:100B5C00A3EBC25310DB01FA02FC634400FA02FC63
:100B6C00C2F12002BCF1004F20FA02F243EB02006A
:100B7C0008BF20F00100704702F1200201FA02FCCC
:100B8C00C2F1200250EA4C0021FA02F243EB0200BF
:100B9C0008BF20EADC7070474FF0FF0C1CEAD05203
:100BAC001EBF1CEAD15392EA0C0F93EA0C0F6FD0C4
:100BBC001A4480EA010C400218BF5FEA41211ED0A2
:100BCC004FF0006343EA501043EA5111A0FB01318E
:100BDC000CF00040B1F5000F3EBF490041EAD37163
:100BEC005B0040EA010062F17F02FD2A1DD8B3F1DF
:100BFC00004F40EBC25008BF20F00100704790F04E
:100C0C00000F0CF0004C08BF49024CEA502040EA9F
:100C1C0051207F3AC2BFD2F1FF0340EAC250704765
:100C2C0040F400004FF00003013A5DDC12F1190FA3
:100C3C00DCBF00F000407047C2F10002410021FA15
:100C4C0002F1C2F1200200FA02FC5FEA310040F12D
:100C5C00000053EA4C0308BF20EADC70704792F0A6
:100C6C00000F00F0004C02BF400010F4000F013ADE
:100C7C00F9D040EA0C0093F0000F01F0004C02BFD9
:100C8C00490011F4000F013BF9D041EA0C018FE748
:100C9C000CEAD15392EA0C0F18BF93EA0C0F0AD04E
:100CAC0030F0004C18BF31F0004CD8D180EA010074
:100CBC0000F00040704790F0000F17BF90F0004F0D
:100CCC00084691F0000F91F0004F14D092EA0C0FEF
:100CDC0001D142020FD193EA0C0F03D14B0218BF82
:100CEC00084608D180EA010000F0004040F0FE40C8
:100CFC0040F40000704740F0FE4040F44000704764
:100D0C004FF0FF0C1CEAD0521EBF1CEAD15392EAE2
:100D1C000C0F93EA0C0F69D0A2EB030280EA010CD2
:100D2C0049024FEA402037D04FF0805343EA11116B
:100D3C0043EA10130CF000408B4238BF5B0042F1C9
:100D4C007D024FF4000C8B4224BF5B1A40EA0C006E
:100D5C00B3EB510F24BFA3EB510340EA5C00B3EBA0
:100D6C00910F24BFA3EB910340EA9C00B3EBD10F8E
:100D7C0024BFA3EBD10340EADC001B0118BF5FEAE0
:100D8C001C1CE0D1FD2A3FF650AF8B4240EBC25009
:100D9C0008BF20F0010070470CF0004C4CEA5020CA
:100DAC007F32C2BFD2F1FF0340EAC250704740F419
:100DBC0000004FF00003013A37E792F0000F00F00B
:100DCC00004C02BF400010F4000F013AF9D040EA89
:100DDC000C0093F0000F01F0004C02BF490011F41D
:100DEC00000F013BF9D041EA0C0195E70CEAD15315
:100DFC0092EA0C0F08D142027FF47DAF93EA0C0FFC
:100E0C007FF470AF084676E793EA0C0F04D14B02DF
:100E1C003FF44CAF08466EE730F0004C18BF31F091
:100E2C00004CCAD130F000427FF45CAF31F000438B
:100E3C007FF43CAF5FE700BF4FF0FF3C06E000BF24
:100E4C004FF0010C02E000BF4FF0010C4DF804CD47
:100E5C004FEA40024FEA41037FEA226C18BF7FEA57
:100E6C00236C11D001B052EA530C18BF90EA010F59
:100E7C0058BFB2EB030088BFC81738BF6FEAE170E8
:100E8C0018BF40F0010070477FEA226C02D15FEA84
:100E9C00402C05D17FEA236CE4D15FEA412CE1D0F0
:100EAC005DF8040B704700BF844608466146FFE7B7
:100EBC000FB5FFF7C9FF002848BF10F1000F0FBD99
:100ECC004DF808EDFFF7F4FF0CBF012000205DF892
:100EDC0008FB00BF4DF808EDFFF7EAFF34BF012017
:100EEC0000205DF808FB00BF4DF808EDFFF7E0FFB0
:100EFC0094BF012000205DF808FB00BF4DF808ED01
:100F0C00FFF7D2FF94BF012000205DF808FB00BF63
:100F1C004DF808EDFFF7C8FF34BF012000205DF845
:100F2C0008FB00BF4FEA4002B2F1FE4F0FD34FF067
:100F3C009E03B3EB12620DD94FEA002343F000433A
:100F4C0010F0004F23FA02F018BF404270474FF0E8
:100F5C000000704712F1610F01D1420205D110F06F
:100F6C00004008BF6FF0004070474FF00000704722
:100F7C0010B504460E4B18784FF47A73B3FBF0F3AC
:100F8C000C4A1068B0FBF3F000F0A2F868B90F2C13
:100F9C0001D901200AE0002221464FF0FF3000F079
:100FAC0055F8034B5C60002000E0012010BD00BF31
:100FBC00000000201400002008B5074A136843F015
:100FCC0010031360032000F02FF80020FFF7D0FF70
:100FDC0001F034FD002008BD00200240034A1168D6
:100FEC00034B1B780B441360704700BF2C0200208E
:100FFC0000000020014B1868704700BF2C02002035
:10100C0038B50446FFF7F6FF0546B4F1FF3F02D0B2
:10101C00044B1B781C44FFF7EDFF401BA042FAD396
:10102C0038BD00BF00000020074AD36823F4E063FA
:10103C001B041B0C000200F4E060184340F0BF607E
:10104C0040F40030D060704700ED00E030B4174B36
:10105C00DB68C3F30223C3F10704042C28BF042468
:10106C001D1D062D18D9033B4FF0FF3505FA04F46E
:10107C0021EA0401994005FA03F322EA0303194318
:10108C0000280BDB0901C9B200F1604000F561409A
:10109C0080F8001330BC70470023E5E700F00F0028
:1010AC000901C9B2024B1954F4E700BF00ED00E08E
:1010BC0014ED00E0002807DB00F01F0240090123BB
:1010CC009340024A42F82030704700BF00E100E034
:1010DC000138B0F1807F0AD2064B5860064AF021E5
:1010EC0082F823100020986007221A6070470120B4
:1010FC00704700BF10E000E000ED00E008B590F88C
:10110C002130022B03D004238363012008BD026825
:10111C00136823F00E0313600268136823F00103B5
:10112C0013600368194A934214D0143293421FD0AF
:10113C00143293421ED0143293421ED01432934276
:10114C001ED01432934202D04FF0807203E04FF461
:10115C00801200E001220E4B5A60012380F82130EE
:10116C00002380F82030436B6BB198470020CDE70B
:10117C001022F0E74FF48072EDE74FF48052EAE76B
:10118C004FF48032E7E70020C0E700BF08000240C0
:10119C0000000240F0B482B000263246A2E0002DDE
:1011AC005AD0012D00D1CE68FF2B69D88446FF2B75
:1011BC0069D89500DCF800400F27AF4024EA0704FB
:1011CC0006FA05F52C43CCF800404C6814F0805F0F
:1011DC0000F087805F4CA56945F00105A561A46905
:1011EC0004F001040194019C9508AF1C5A4C54F86E
:1011FC00274002F00307BF004FF00F0C0CFA07FC5E
:10120C0024EA0C0C554CA04243D004F58064A04257
:10121C0000F0818004F58064A0427ED004F58064E7
:10122C00A04234D0042435E04D4FBD4214D00BD92C
:10123C004C4FBD4210D007F58037BD420CD0A7F5FE
:10124C008017BD42B0D107E0A7F58017BD4203D08F
:10125C0007F58037BD42A7D18D687DB1012D08D02F
:10126C0044610826A0E7CE6808369DE7CE680C36A8
:10127C009AE70461082697E7002695E7042693E78A
:10128C0000F1040C93E7A2F10805AD0092E70324EA
:10129C0000E00024BC4044EA0C0402352E4F47F811
:1012AC0025404C6814F4803F39D02F4D2C681C43DA
:1012BC002C604C6814F4003F37D02B4D6C681C43E9
:1012CC006C604C6814F4801F35D0274DAC681C43FF
:1012DC00AC604C6814F4001F33D0234DEC682343EE
:1012EC00EB6001320B6833FA02F430D001249440E5
:1012FC0023409C42F5D14D68122DB7D094D8022DC5
:10130C00B1D07FF64CAF032DB6D0112D7FF44CAF7E
:10131C00CE68043648E70124BCE70224BAE7124D34
:10132C002C6824EA03042C60C3E70F4D6C6824EA94
:10133C0003046C60C5E70C4DAC6824EA0304AC6094
:10134C00C7E7094DEC6824EA0303EB60C9E702B078
:10135C00F0BC704700100240000001400008014042
:10136C000000211000003110000401408368194274
:10137C0001D1002070470120704712B909040161A6
:10138C00704701617047000008B5054B5B6903426B
:10139C0000D108BD024B586101F01EF8F9E700BFFF
:1013AC000004014082B0084B1B68084AA2FB0323CF
:1013BC005B0A00FB03F0019000BF019B5A1E0192D7
:1013CC00002BF9D102B0704714000020D34D6210ED
:1013DC00002800F0F58170B582B00446036813F064
:1013EC00010F2CD0AB4B5B6803F00C03042B1DD00E
:1013FC00A84B5B6803F00C03082B12D06368B3F5A1
:10140C00803F41D0002B55D103F1804303F50433C9
:10141C001A6822F480321A601A6822F480221A6048
:10142C0037E09C4B5B6813F4803FE7D0994B1B680B
:10143C0013F4003F03D06368002B00F0C3812368D2
:10144C0013F0020F76D0934B5B6813F00C0F5FD048
:10145C00904B5B6803F00C03082B54D02369002BD2
:10146C0000F08A808C4B01221A60FFF7C3FD054601
:10147C00884B1B6813F0020F75D1FFF7BBFD401BA7
:10148C000228F5D90320A0E1824A136843F4803383
:10149C001360636843B3FFF7ADFD05467D4B1B68D6
:1014AC0013F4003FCBD1FFF7A5FD401B6428F5D901
:1014BC0003208AE1B3F5A02F09D0764B1A6822F4E9
:1014CC0080321A601A6822F480221A60E1E703F174
:1014DC008043A3F53C331A6842F480221A601A68E0
:1014EC0042F480321A60D4E7FFF784FD0546694B5D
:1014FC001B6813F4003FA2D0FFF77CFD401B64284F
:10150C00F5D9032061E1634B5B6813F4803FA5D1EF
:10151C00604B1B6813F0020F04D02369012B01D020
:10152C00012052E15B4A136823F0F803616943EA36
:10153C00C1031360236813F0080F32D0A369002B8A
:10154C005BD0564B01221A60FFF754FD0546514BF8
:10155C005B6A13F0020F21D1FFF74CFD401B0228F0
:10156C00F5D9032031E14B4A136823F0F803616984
:10157C0043EAC1031360DDE7474B00221A60FFF713
:10158C0039FD0546434B1B6813F0020FD2D0FFF711
:10159C0031FD401B0228F5D9032016E10120FFF78D
:1015AC0001FF236813F0040F00F09880394BDB69BE
:1015BC0013F0805F33D1374BDA6942F08052DA6135
:1015CC00DB6903F080530193019B0125344B1B68AD
:1015DC0013F4807F25D0E368012B36D0002B4CD13F
:1015EC0003F1804303F504331A6A22F001021A62F4
:1015FC001A6A22F004021A622CE0284B00221A60AC
:10160C00FFF7F8FC0546234B5B6A13F0020FC8D0BA
:10161C00FFF7F0FC401B0228F5D90320D5E000258C
:10162C00D4E71F4A136843F480731360FFF7E2FC9E
:10163C0006461B4B1B6813F4807FCCD1FFF7DAFCFA
:10164C00801B6428F5D90320BFE0124A136A43F0CB
:10165C0001031362E3687BB3FFF7CCFC06460D4B2A
:10166C001B6A13F0020F38D1FFF7C4FC801B41F248
:10167C0088339842F3D90320A7E0052B12D0054BF1
:10168C001A6A22F001021A621A6A22F004021A6221
:10169C00E0E700BF001002400000424280044242DA
:1016AC00007000404C4B1A6A42F004021A621A6A2B
:1016BC0042F001021A62CDE7FFF79CFC0646464B4E
:1016CC001B6A13F0020F08D0FFF794FC801B41F249
:1016DC0088339842F3D9032077E0E5B9E369002B0E
:1016EC0072D03D4A526802F00C02082A56D0022BE6
:1016FC0017D03A4B00221A60FFF77CFC0446364B9D
:10170C001B6813F0007F47D0FFF774FC001B022806
:10171C00F5D9032059E0304AD36923F08053D361C3
:10172C00DCE72E4B00221A60FFF764FC05462A4BBF
:10173C001B6813F0007F06D0FFF75CFC401B0228EF
:10174C00F5D9032041E0236AB3F5803F1AD0224932
:10175C004B6823F47413226A606A024313434B6090
:10176C001E4B01221A60FFF745FC04461A4B1B68FE
:10177C0013F0007F0ED1FFF73DFC001B0228F5D9BA
:10178C00032022E0144A536823F40033A1680B436E
:10179C005360DCE7002018E0002016E0012B16D087
:1017AC000D4B5B6803F48031226A914201D0012019
:1017BC000BE003F47013626A93420AD0012004E038
:1017CC0001207047012000E0002002B070BD012014
:1017DC00FBE70020F9E700BF001002406000424226
:1017EC0010B487B0164C94E80F000DF1180C0CE9EE
:1017FC000F00238AADF80430124B5B6803F00C0227
:10180C00082A1AD1C3F38342624412F8102C13F441
:10181C00803F05D10C4800FB02F007B010BC7047AC
:10182C00084B5B68C3F34043634413F8143C07480C
:10183C0000FB02F0B0FBF3F0EFE70448EDE700BF6C
:10184C00B43600080010024000093D0000127A0076
:10185C00002800F0A38070B50446524B1B6803F0BF
:10186C0007038B420CD24F4A136823F007030B4338
:10187C001360136803F007038B4201D0012070BD85
:10188C00236813F0020F17D013F0040F04D0464A4C
:10189C00536843F4E0635360236813F0080F04D0DB
:1018AC00414A536843F4605353603F4A536823F0F2
:1018BC00F003A068034353600D46236813F0010F37
:1018CC0031D06368012B20D0022B25D0364A126808
:1018DC0012F0020F64D034494A6822F00302134319
:1018EC004B60FFF787FB06462F4B5B6803F00C033E
:1018FC006268B3EB820F16D0FFF77CFB801B41F2C2
:10190C0088339842F0D90320B9E7274A126812F4B9
:10191C00003FE0D10120B2E7234A126812F0007FA9
:10192C00D9D10120ABE71F4B1B6803F00703AB4277
:10193C000CD91C4A136823F007032B43136013685C
:10194C0003F00703AB4201D0012098E7236813F0A2
:10195C00040F06D0144A536823F4E063E1680B4388
:10196C005360236813F0080F07D00F4A536823F411
:10197C006053216943EAC1035360FFF731FF0A4BFF
:10198C005B68C3F30313094AD35CD840084B186057
:10199C00084B1868FFF7ECFA002070E7012070473D
:1019AC0001206CE70020024000100240C8360008FD
:1019BC001400002004000020014B1868704700BF81
:1019CC001400002008B5FFF7F7FF044B5B68C3F366
:1019DC000223034AD35CD84008BD00BF001002406C
:1019EC00D836000808B5FFF7E7FF044B5B68C3F374
:1019FC00C223034AD35CD84008BD00BF001002408C
:101A0C00D836000810B4036A046A24F00104046296
:101A1C00846924F0F00444EA021223F00A030B4315
:101A2C008261036210BC704710B4036A23F0100388
:101A3C0003628469036A24F4704444EA023223F09A
:101A4C00A00343EA01138261036210BC70478368F0
:101A5C0023F07003194341F00701816070470223A2
:101A6C0080F83D300268936803F00703062B03D01F
:101A7C00136843F001031360012380F83D3000200C
:101A8C0070470268D36843F00103D360026893681F
:101A9C0003F00703062B03D0136843F00103136014
:101AAC0000207047704770477047704710B5044668
:101ABC0003681A6912F0020F11D0DA6812F0020FE3
:101ACC000DD06FF002021A610123037703689B6942
:101ADC0013F0030F70D0FFF7E6FF00232377236882
:101AEC001A6912F0040F12D0DA6812F0040F0ED03B
:101AFC006FF004021A610223237723689B6913F4A5
:101B0C00407F5FD02046FFF7CEFF0023237723686A
:101B1C001A6912F0080F12D0DA6812F0080F0ED002
:101B2C006FF008021A61042323772368DB6913F032
:101B3C00030F4ED02046FFF7B6FF00232377236810
:101B4C001A6912F0100F12D0DA6812F0100F0ED0C2
:101B5C006FF010021A61082323772368DB6913F4F2
:101B6C00407F3DD02046FFF79EFF0023237723685C
:101B7C001A6912F0010F03D0DA6812F0010F36D196
:101B8C0023681A6912F0800F03D0DA6812F0800F04
:101B9C0034D123681A6912F0400F03D0DA6812F0BE
:101BAC00400F32D123681A6912F0200F03D0DA6883
:101BBC0012F0200F30D110BDFFF774FF2046FFF755
:101BCC0073FF8AE72046FFF76DFF2046FFF76CFF97
:101BDC009BE72046FFF766FF2046FFF765FFACE763
:101BEC002046FFF75FFF2046FFF75EFFBDE76FF073
:101BFC0001021A61204600F039FEC1E76FF0800245
:101C0C001A61204600F0FFF8C3E76FF040021A613A
:101C1C002046FFF74AFFC5E76FF020021A61204605
:101C2C0000F0F0F8C7E7000003681B4A90420AD0A6
:101C3C00B0F1804F07D0A2F59432904203D002F558
:101C4C008062904203D123F070034A681343124A16
:101C5C0090420AD0B0F1804F07D0A2F59432904256
:101C6C0003D002F58062904203D123F44073CA681A
:101C7C00134323F080034A69134303608B68C362E8
:101C8C000B688362044B984202D001234361704776
:101C9C000B690363F9E700BF002C0140A8B110B534
:101CAC00044690F83D305BB1022384F83D30211D91
:101CBC002068FFF7B9FF012384F83D30002010BDE8
:101CCC0080F83C3000F0DCFEEEE70120704710B4E9
:101CDC00846824F47F4442EA03230B432343836048
:101CEC0010BC704790F83C30012B66D010B5044600
:101CFC00012380F83C30022380F83D300268936861
:101D0C0023F47F4323F0770393600B68402B4AD076
:101D1C0013D9602B3DD01ED9702B28D0B3F5005FA2
:101D2C0030D1CB684A6889680068FFF7D0FF226819
:101D3C00936843F48043936024E0102B06D004D9BD
:101D4C00202B03D0302B01D01CE0DBB919462068C6
:101D5C00FFF77DFE16E0502B14D1CA684968006865
:101D6C00FFF750FE50212068FFF771FE0AE0CB68A8
:101D7C004A6889680068FFF7AAFF2268936843F0F5
:101D8C0077039360012384F83D30002084F83C00F5
:101D9C0010BDCA6849680068FFF746FE60212068DC
:101DAC00FFF755FEEEE7CA6849680068FFF72AFEA0
:101DBC0040212068FFF74BFEE4E70220704790F8C3
:101DCC003C30012B1CD070B4012680F83C600223FF
:101DDC0080F83D3002685568936825F070050C68F2
:101DEC002C4323F080054B682B43546002689360AE
:101DFC0080F83D60002380F83C30184670BC70477A
:101E0C0002207047704770470268D36823F49073C0
:101E1C00D3600268536923F001035361202380F8D7
:101E2C003A30704790F83930DBB2212B2AD18368D5
:101E3C00B3F5805F16D0036A5A1C02621A780368E5
:101E4C005A60C38C013B9BB2C384EBB90268D36864
:101E5C0023F08003D3600268D36843F04003D3605F
:101E6C0000207047036A1B880268C3F308035360A1
:101E7C0003691BB9036A02330362E2E7036A0133A5
:101E8C000362DEE7022070470020704738B5044635
:101E9C000268136923F44053C1680B4313618368D0
:101EAC000269134342691A430168CB6823F4B053A7
:101EBC0023F00C031343CB600268536923F4407383
:101ECC0081690B4353610268214B9A421FD0FFF783
:101EDC0079FD00EB800000EB800063689B00B0FB99
:101EEC00F3F01C4DA5FB00325109642202FB1102D8
:101EFC0013013233A5FB03235B0903F0F00202EB61
:101F0C00011203F00F03216813448B6038BDFFF7F7
:101F1C0069FD00EB800000EB800063689B00B0FB68
:101F2C00F3F00C4DA5FB00325109642202FB1102A7
:101F3C0013013233A5FB03235B0903F0F00202EB20
:101F4C00011203F00F03216813448B60DEE700BF1E
:101F5C00003801401F85EB5158B310B5044690F87A
:101F6C0039300BB3242384F839302268D36823F436
:101F7C000053D3602046FFF789FF2268136923F4CE
:101F8C00904313612268536923F02A03536122683A
:101F9C00D36843F40053D3600020E063202384F81B
:101FAC00393084F83A3010BD80F8383000F098FDA4
:101FBC00D8E70120704790F83930DBB2202B16D1CE
:101FCC00B9B1C2B190F83830012B16D001628284BD
:101FDC00C2840023C363212280F8392080F8383072
:101FEC000168CA6842F08002CA6018467047022035
:101FFC00704701207047012070470220704790F80D
:10200C003A30DBB2202B20D109B312B390F8383020
:10201C00012B20D081628285C2850023C3632222DA
:10202C0080F83A2080F838300168CA6842F480722F
:10203C00CA6001684A6942F001024A610168CA68D3
:10204C0042F02002CA6018467047022070470120F7
:10205C0070470120704702207047704708B501682F
:10206C00CB6823F04003CB60202380F83930FFF796
:10207C00F4FF002008BD08B590F83A30DBB2222BF3
:10208C0045D18368B3F5805F0ED0036903BB036849
:10209C005A68836A591C81621A70C38D013B9BB2CA
:1020AC00C385F3B1002033E0826A036943B9036846
:1020BC005B68C3F308031380836A02338362ECE723
:1020CC0003685B68DBB21380836A01338362E4E7E5
:1020DC0003685B68826A511C816203F07F03137092
:1020EC00DBE70268D36823F02003D3600268D3686F
:1020FC0023F48073D3600268536923F001035361A6
:10210C00202380F83A3000F0F1FB002000E00220A0
:10211C0008BD704710B5044602681368D16852694F
:10212C0013F00F0005D113F0200F02D011F0200F87
:10213C0053D1002867D012F0010202D111F4907F24
:10214C0061D013F0010F06D011F4807F03D0E06B47
:10215C0040F00100E06313F0040F04D01AB1E06BFF
:10216C0040F00200E06313F0020F04D01AB1E06BF0
:10217C0040F00400E06313F0080F04D01AB1E26BD6
:10218C0042F00802E263E26B002A48D013F0200F01
:10219C0002D011F0200F24D123685B6903F04003B7
:1021AC00E26B12F0080F00D13BB32046FFF72CFE78
:1021BC0023685A6912F0400F1BD05A6922F0400272
:1021CC005A61636B8BB11A4A5A63606BFEF796FFC8
:1021DC0028B3606B436B984721E02046FFF74BFF19
:1021EC001DE02046FFF747FFD6E72046FFF791FF9B
:1021FC0015E02046FFF78DFF11E02046FFF789FF21
:10220C000023E3630BE013F0800F02D011F0800F7A
:10221C0006D113F0400F02D011F0400F04D110BDC5
:10222C002046FFF7FFFDFAE72046FFF717FFF6E71A
:10223C004122000808B5406A0023C385C384FFF718
:10224C0068FF08BDF0B587B0002402940394049491
:10225C000594274B9A6942F004029A619A6902F03C
:10226C0004020092009A9A6942F008029A619B69F2
:10227C0003F008030193019B1E4E22464021304679
:10228C00FFF77BF840230293012503950494022366
:10229C00059302A93046FEF77DFF80230293164F6B
:1022AC000397049502A93046FEF774FF03230293AB
:1022BC000397049502A91148FEF76CFF22462946A4
:1022CC000620FEF7C3FE0620FEF7F4FE2246294642
:1022DC000720FEF7BBFE0720FEF7ECFE2246294640
:1022EC001720FEF7B3FE1720FEF7E4FE07B0F0BD93
:1022FC00001002400008014000002110000C0140B9
:10230C0008B50848084B03604FF41653436000238C
:10231C008360C36003610C2242618361C361FFF778
:10232C001BFE08BD300300200044004030B587B0D0
:10233C0000240294039404940594009401940F4D8A
:10234C000F4B2B6042F20F736B60AC60F023EB60B1
:10235C002C616C618023AB612846FFF79FFC4FF426
:10236C008053029302A92846FFF7BCFC0094019409
:10237C0069462846FFF723FD07B030BDE002002078
:10238C00002C014030B587B00024029403940494CF
:10239C000594009401940E4D0E4B2B6007236B603B
:1023AC00AC604FF6FE73EB602C61AC612846FFF716
:1023BC0075FC4FF48053029302A92846FFF792FC58
:1023CC000094019469462846FFF7F9FC07B030BD2C
:1023DC004802002000040040802804D0012807D0C7
:1023EC0002280AD07047074A136801331360F5E7D7
:1023FC00054A136801331360F2E7044A136801338A
:10240C001360EFE7940200208C02002044020020AD
:10241C00034B1A6800235362536A8342FCD3704700
:10242C004802002000B585B00023029300910123DF
:10243C000193022303936946FEF7ACFE05B05DF8E9
:10244C0004FB00B585B00023019303930091012395
:10245C0002936946FEF79EFE05B05DF804FB000092
:10246C0010B50D4C40212046FFF7DCFF0022402127
:10247C002046FEF782FF4FF49660FFF7C9FF01225A
:10248C0040212046FEF779FF1420FFF7C1FF4021C1
:10249C002046FFF7D6FF10BD0008014010B52820DC
:1024AC00FFF7B6FF40210C48FEF760FF40B1002457
:1024BC0040210948FEF75AFF0028F9D1204610BDEB
:1024CC005020FFF7A5FF40210348FEF74FFF08B14E
:1024DC000124EDE7FF24EBE70008014038B50024A8
:1024EC0025460DE0C4F10702012393402B43DDB2D6
:1024FC0040211048FEF73AFF0028F9D10134E4B22C
:10250C00072C15D840210B48FEF730FF0028F9D0D6
:10251C002820FFF77DFF40210648FEF727FF002803
:10252C00E0D1C4F107020123934025EA0305DFE75C
:10253C00284638BD000801402DE9F041FFF790FF17
:10254C00FFF7ACFF1E4D2870FFF7C8FF1D4C207025
:10255C00FFF7C4FF1C4E3070FFF7C0FFDFF8808020
:10256C0088F80000FFF7BAFF184F3870FFF7B6FF76
:10257C00174B188098F80030387840EA0320154B38
:10258C0018802378347844EA0324134B1C80FDF71D
:10259C0029FF0022114BFEF7B9F8FEF79FF968608E
:1025AC002046FDF71FFF00220C4BFEF7AFF8FEF79D
:1025BC0095F9A8604FF47A70FEF722FDBDE8F08122
:1025CC000402002040020020A40200207803002016
:1025DC0070030020880200204202002000002440EA
:1025EC009802002038B50D4B1868FEF781FA0C4C98
:1025FC002168FEF7D1FA05460A4B1868FEF778FAFF
:10260C006168FEF7C9FA01462846FEF7BBF9064990
:10261C00FEF776FB054B186038BD00BF9402002016
:10262C00080000208C02002000007A4424030020C3
:10263C002DE9F04704461B4BD3F800801A4F38683D
:10264C00A8EB0000FEF754FADFF874A0DAF80010DB
:10265C00FEF7A2FA8146154B1E68154D2868301AF4
:10266C00FEF746FADAF80410FEF796FA824611489D
:10267C0080FB0430E417C4EB2050FEF739FA044613
:10268C0051464846FEF77EF90B49FEF739FB2146C9
:10269C00FEF736FB094B1860C7F800802E60BDE8CA
:1026AC00F08700BF94020020900200208C020020D2
:1026BC00DC02002059BE904A00007A443C02002003
:1026CC000800002010B50B4B1868FEF711FA0A4BE6
:1026DC001968FEF761FA0949FEF712FB0446084B2C
:1026EC001868FEF705FA2146FEF756FA054B1860F6
:1026FC0010BD00BF740300202C030020002474497B
:10270C00440200207C030020F8B50446114B1E68DF
:10271C00114D2868301AFEF7E7F9104B1968FEF7CF
:10272C003BFA0F49FEF7ECFAFEF7FCFB07460D48A7
:10273C0080FB0430E417C4EB2050FEF7D9F90446B3
:10274C003846FEF7D5F92146FEF7DAFA064B186043
:10275C002E60F8BD440200209C0200202C030020B7
:10276C0000007A4459BE904AA00200202DE9F0479F
:10277C0084B0314BDB68002B4DD1304B1B68002BE8
:10278C0057D000212E4B1868FEF79AFB002850D129
:10279C002C492D4B1868FEF7FFF9FEF7C3FB0646D4
:1027AC0028492A4B1868FEF7F7F9FEF7BBFB0746DA
:1027BC002449274B1868FEF7EFF9FEF7B3FB804668
:1027CC002049244B1868FEF7E7F9FEF7ABFB81466E
:1027DC00194C1C496068FEF7DFF9FEF7A3FB824633
:1027EC001849A068FEF7D8F9FEF79CFB1A4D039028
:1027FC00CDF808A0CDF80490CDF800803B463246C9
:10280C001649284600F07CFA82B2228229461448E6
:10281C00FFF7D1FB0DE0104C124B1A681249204601
:10282C0000F06EFA82B2044B1A8221460C48FFF774
:10283C00C2FB04B0BDE8F087040200207403002042
:10284C002C0300200000C842240300203C0200207E
:10285C007C030020A0020020A8020020E83600081B
:10286C003003002044020020E036000808B502685E
:10287C00094B9A4200D008BD4FF49670FFF7D8FE72
:10288C004FF49670FFF740FFFFF71CFFFFF7AAFE0F
:10289C00FFF76CFFEFE700BF002C01400023124A4A
:1028AC0092689A421EDD30B585B0CC5C844206D06D
:1028BC0001330D4A92689A42F7DC002010E0013394
:1028CC000024C85C2C2808D09A4206D0013304ADF1
:1028DC00254405F80C0C0134F3E701A800F0D9F9F4
:1028EC0005B030BD002070470800002070B50024F2
:1028FC0006E0254B00221A60244B0122DA600134D9
:10290C00234B9B68A34229DD224B1B5D413B032BD0
:10291C00F5D801A252F823F0FF2800083529000849
:10292C003D2900084B290008184B0022DA60E6E725
:10293C0018494320FFF7B2FF174B1860DFE7154922
:10294C004420FFF7ABFF154B83FB0023C017C0EBF4
:10295C006310FEF7CDF8124B1860D0E70D4D114EF9
:10296C002A461149304600F0CBF982B2074B1A8245
:10297C000E4C31462046FFF71EFB0A222946204604
:10298C00FFF73DFB70BD00BF440200200402002095
:10299C000800002030020020740300201F85EB513A
:1029AC002C030020A8020020FC3600083003002075
:1029BC0010B590B02422002107A800F099F900244A
:1029CC000194029403940494059402230693012326
:1029DC000A9310230B9306A8FEF7FAFC0F2301931E
:1029EC000294039404940594214601A8FEF730FF49
:1029FC0010B010BD08B5FEF7DFFAFFF7D9FFFFF7EF
:102A0C0021FCFFF77DFCFFF791FCFFF7BBFC0748AF
:102A1C00FFF737F80648FFF722F80A22054906485F
:102A2C00FFF7EDFAFFF788FDFCE700BFE00200209E
:102A3C0048020020300200203003002082B00E4BF0
:102A4C009A6942F001029A619A6902F001020092BD
:102A5C00009ADA6942F08052DA61DB6903F0805344
:102A6C000193019B054A536823F0E06343F08063B4
:102A7C00536002B0704700BF0010024000000140DC
:102A8C0000B583B00368134A934205D0124A9342AF
:102A9C0015D003B05DF804FB104B9A6942F4006248
:102AAC009A619B6903F400630093009B002211461A
:102ABC001920FEF7CBFA1920FEF7FCFAE9E7074BD1
:102ACC00DA6942F00202DA61DB6903F00203019376
:102ADC00019BDEE7002C0140000400400010024086
:102AEC0030B587B0002302930393049305930268D7
:102AFC001B4B9A4201D007B030BD03F5E633DA69BF
:102B0C0042F40032DA61DA6902F400320092009A7F
:102B1C009A6942F004029A619B6903F004030193E1
:102B2C00019B0423029302230393032305930D4D6E
:102B3C0002A92846FEF72EFB0823029300240394D7
:102B4C0004940DEB03012846FEF724FB22460121D9
:102B5C002620FEF77BFA2620FEF7ACFACBE700BF67
:102B6C0000440040000801407047FEE7FEE7FEE726
:102B7C00FEE770477047704708B5FEF72FFA08BD9F
:102B8C0008B50120FEF700FC08BD08B50220FEF7D1
:102B9C00FBFB08BD08B58020FEF7F6FB08BD000066
:102BAC0008B50248FEF782FF08BD00BFE002002016
:102BBC0008B50248FFF7AEFA08BD00BF300300208D
:102BCC0008B503460B4A126842B10A4A106803441E
:102BDC006A46934206D8074A136008BD054A06495F
:102BEC001160F2E700F05AF80C2303604FF0FF304D
:102BFC00F3E700BF1C020020880300200F4B1A686B
:102C0C0042F001021A6059680D4A0A405A601A686B
:102C1C0022F0847222F480321A601A6822F4802224
:102C2C001A605A6822F4FE025A604FF41F029A602E
:102C3C00044B4FF000629A60704700BF00100240D6
:102C4C000000FFF800ED00E0002103E00B4B5B58A7
:102C5C00435004310A480B4B42189A42F6D30A4AA5
:102C6C0002E0002342F8043B084B9A42F9D3FFF7E9
:102C7C00C5FF00F019F8FFF7BDFE7047603800087B
:102C8C0000000020E8010020E8010020840300205F
:102C9C00FEE70A22002100F0CFB80000014B1868B3
:102CAC00704700BF1800002070B500250C4E0D4C6D
:102CBC00A41BA410A54209D100F0EAFC00250A4E81
:102CCC000A4CA41BA410A54205D170BD56F82530A2
:102CDC0098470135EEE756F8253098470135F2E76D
:102CEC005838000858380008583800085C38000874
:102CFC0003460244934200D1704703F8011BF9E7E5
:102D0C000EB46FF0004100B59CB01DAB0290069064
:102D1C00079104910848094953F8042B0591006860
:102D2C0002A9019300F00EF90022029B1A701CB04C
:102D3C005DF804EB03B07047180000200802FFFF99
:102D4C002DE9F0478046894692461E460F463D4681
:102D5C00089815F8014B00F085F82044437813F0DF
:102D6C00080332D12D2C32D101227C78BD1C002ECF
:102D7C005DD0102E09D1302C07D12B7803F0DF0356
:102D8C00582B4FD110266C780235002A14BF4FF007
:102D9C0000416FF000410027B1FBF6FC384606FB02
:102DAC001C1EA4F13003092B17D81C46A64223DDA8
:102DBC007B1C07D084451CD301D1A64519DB012708
:102DCC0000FB064015F8014BEBE72F46BFE72B2C19
:102DDC0004BFBD1C7C781A46C9E7A4F14103192B2A
:102DEC0001D8373CE2E7A4F16103192B04D8573C16
:102DFC00DCE74FF0FF37E5E77B1C08D122230846C0
:102E0C00C8F80030BAF1000F07D1BDE8F08702B165
:102E1C004042BAF1000FF8D00FB105F1FF39CAF8F2
:102E2C000090F2E73024002EAFD10826ADE7302C0D
:102E3C00A3D00A26A9E70000084B37B51C68084D3B
:102E4C00236A002B08BF2B46009313460A46014603
:102E5C002046FFF775FF03B030BD00BF18000020FF
:102E6C007C000020D0F8EC00704782B001B901A9B9
:102E7C0042B14BB113780B601278101C18BF0120B3
:102E8C0002B070471046FBE76FF00100F8E72DE940
:102E9C00F0478E6882469E420C469046994637D83B
:102EAC008A8912F4906F31D00223256809696F1A50
:102EBC00656905EB450595FBF3F509F101033B4409
:102ECC009D4238BF1D46530530D5294600F046FBC0
:102EDC00064650B90C234FF0FF30CAF80030A389D6
:102EEC0043F04003A381BDE8F0873A46216900F026
:102EFC00C4FAA38923F4906343F08003A381266171
:102F0C003E4426604E466561ED1BA5604E4500D9DA
:102F1C004E4632464146206800F0BAFAA3680020BB
:102F2C009B1BA36023681E442660DCE72A4600F046
:102F3C006FFB06460028E2D12169504600F0C2FA28
:102F4C00C8E700002DE9F04F1D468B899DB01F0688
:102F5C0080460C4616460FD50B696BB9402100F024
:102F6C00FDFA2060206128B90C23C8F800304FF01E
:102F7C00FF30C8E0402363610023099320238DF8C0
:102F8C00293030234FF0010B8DF82A30039537464A
:102F9C003D4615F8013B0BB1252B3ED1B7EB060A8C
:102FAC000BD05346324621464046FFF770FF0130A6
:102FBC0000F0A480099B534409933B78002B00F04C
:102FCC009D8000234FF0FF32CDE905230493079336
:102FDC008DF853301A932F46052217F8011B5048D1
:102FEC0000F03DFA049BD0B9D90644BF20228DF8DD
:102FFC0053201A0744BF2B228DF853202A782A2AF3
:10300C0015D02F4600200A25079A394611F8013BA6
:10301C00303B092B4DD9B8B10FE02F46B8E7404AE9
:10302C003D46801A0BFA00F018430490D3E7039A3C
:10303C00111D12680391002A01DB079204E0524231
:10304C0043F00203079204933B782E2B0CD17B7830
:10305C002A2B33D1039B02371A1D1B680392002BBA
:10306C00B8BF4FF0FF3305932E4D03223978284615
:10307C0000F0F5F938B14023401B03FA00F0049B33
:10308C000137034304933978062227487E1C8DF8B8
:10309C00281000F0E4F9002838D0244B13BB039B14
:1030AC00073323F0070308330393099B4B4409931D
:1030BC006DE705FB023201200F46A6E700230A2527
:1030CC00194601370593384610F8012B303A092A76
:1030DC0003D9002BC8D00591C6E705FB01210123BC
:1030EC000746F0E703AB00932246114B04A9404678
:1030FC00AFF30080B0F1FF3F8146D6D1A3895B06C8
:10310C003FF535AF09981DB0BDE8F08F03AB0093C8
:10311C002246074B04A9404600F082F8EAE700BFBC
:10312C0022370008283700082C3700080000000060
:10313C009B2E00082DE9F04791461F468A680B69C3
:10314C0006469342B8BF1346C9F8003091F84320A5
:10315C000C46DDF8208012B10133C9F80030236829
:10316C00990642BFD9F800300233C9F800302568FF
:10317C0015F0060507D104F1190AE368D9F8002007
:10318C009B1AAB4229DC94F843302268003318BFF9
:10319C00012392062ED404F1430239463046C0472F
:1031AC00013021D02368E56803F00603042B18BF17
:1031BC000025D9F800204FF0000908BFAD1AA3680C
:1031CC00226908BF25EAE5759342C4BF9B1AED1826
:1031DC001A344D451AD1002008E0012352463946D5
:1031EC003046C047013003D14FF0FF30BDE8F087C7
:1031FC000135C2E73020E11881F843005A1C94F8DD
:10320C0045102244023382F84310C4E701232246BE
:10321C0039463046C0470130E6D009F10109D8E7FC
:10322C002DE9F04301F1430C0C46097E85B06E2963
:10323C001746064698460C9A00F0B38022D86329AC
:10324C0036D00AD8002900F0B980582900F08380C4
:10325C0004F1420584F8421032E0642901D0692956
:10326C00F6D120681368050603F104012AD51B6802
:10327C001160002B03DA2D225B4284F843206F4847
:10328C000A2239E0732900F09D8008D86F2920D0DC
:10329C007029DDD1236843F02003236003E07529F6
:1032AC0017D07829D4D17823654884F8453055E077
:1032BC00136804F14205191D1B68116084F8423033
:1032CC0001238CE01B6810F0400F116018BF1BB27B
:1032DC00CFE713682568181D1060280601D51B68F8
:1032EC0002E06806FBD51B886F2914BF0A2208224E
:1032FC005248002184F843106568002DA560C0F287
:10330C009580216821F004012160002B3DD1002D16
:10331C0040F08E806546082A0BD12368DB0708D560
:10332C00236962689A42DEBF302305F8013C05F13F
:10333C00FF35ACEB05032361CDF800803B4603AAB7
:10334C0021463046FFF7F6FE01304DD14FF0FF30ED
:10335C0005B0BDE8F083394884F84510136821683E
:10336C001D1D1B6815600A060BD5CA0744BF41F02A
:10337C00200121601BB9226822F020022260102259
:10338C00B7E74D0648BF9BB2EFE76546B3FBF2F1DA
:10339C0002FB1133C35C05F8013D0B460029F5D146
:1033AC00B9E713682568181D6169106028061B6849
:1033BC0001D5196002E06A06FBD519800023654629
:1033CC002361B9E71368191D11601D68626800213B
:1033DC00284600F044F808B1401B60606368236124
:1033EC00002384F84330A7E723692A463946304640
:1033FC00C0470130AAD023689B0713D4E068039B15
:10340C009842B8BF1846A3E701234A4639463046CE
:10341C00C04701309AD00135E368039A9B1AAB423E
:10342C00F2DCEBE7002504F11909F5E7002BACD130
:10343C00037804F1420584F842306CE73337000816
:10344C004437000849B1FF2A8BBF8A230A700360F6
:10345C00012088BF4FF0FF3070470846704710B509
:10346C00C9B202449042034601D1002303E01C7808
:10347C0001308C42F6D1184610BD10B5431E0A44DB
:10348C00914200D110BD11F8014B03F8014FF7E741
:10349C00884210B501EB020307D8421E99420AD0AC
:1034AC0011F8014B02F8014FF8E78342F5D9811866
:1034BC00D21AD34200D110BD13F8014D01F8014DC1
:1034CC00F7E7000038B50546002943D051F8043C15
:1034DC000C1F002BB8BFE41800F0D0F81E4A13687C
:1034EC00104633B9636014602846BDE8384000F0DC
:1034FC00C6B8A3420BD921686218934201BF1A685F
:10350C005B685218226063600460EDE713465A68EA
:10351C000AB1A242FAD919685818A0420BD12068F6
:10352C000144581882421960DED110685268014477
:10353C0019605A60D8E702D90C232B60D4E72068B5
:10354C0021188A4201BF1168526809182160626013
:10355C005C60C9E738BD00BF2402002070B5CD1CEB
:10356C0025F0030508350C2D38BF0C25002D06461B
:10357C0001DBA94203D90C233360002070BD00F09D
:10358C007DF8214A1468214691B9204C23681BB957
:10359C00304600F063F820602946304600F05EF8B3
:1035AC00431C24D10C233046336000F068F8E4E768
:1035BC000B685B1B18D40B2B0FD90B60CC18CD50A0
:1035CC00304600F05CF804F10B00231D20F00700DE
:1035DC00C31AD3D05A42E250D0E74B688C4216BF84
:1035EC00636013600C46EBE70C464968CCE7C41CDF
:1035FC0024F00304A04205D0211A304600F02EF826
:10360C000130CFD02560DBE7240200202802002007
:10361C00F8B5074614460E4621B9BDE8F8401146E8
:10362C00FFF79CBF22B9FFF74DFF25462846F8BD92
:10363C0000F026F8A0420FD221463846FFF78EFF45
:10364C0005460028F2D031462246FFF716FF3146D8
:10365C003846FFF737FFE9E73546E7E738B500238B
:10366C00054C054608462360FFF7AAFA431C02D115
:10367C00236803B12B6038BD80030020704770476E
:10368C0051F8043C181F002BBCBF0B58C0187047D6
:10369C00F8B500BFF8BC08BC9E467047F8B500BF33
:0836AC00F8BC08BC9E46704703
:1036B40002030405060708090A0B0C0D0E0F10106F
:1036C40001020000000000000000000001020304E9
:1036D40006070809000000000102030425640D0A1E
:1036E4000000000025642C25642C25642C25642C02
:1036F40025642C25640D0A004F64656272616E6155
:1037040020776961646F6D6F73633A2025730A0DC6
:10371400000000004300504F534958002E00232D51
:10372400302B2000686C4C006566674546470030C6
:103734003132333435363738394142434445460013
:103744003031323334353637383961626364656613
:10375400000020202020202020202028282828287D
:103764002020202020202020202020202020202055
:1037740020208810101010101010101010101010AD
:1037840010100404040404040404040410101010AD
:103794001010104141414141410101010101010168
:1037A40001010101010101010101010101101010D8
:1037B400101010424242424242020202020202023B
:1037C40002020202020202020202020202101010AB
:1037D40010200000000000000000000000000000B5
:1037E40000000000000000000000000000000000D5
:1037F40000000000000000000000000000000000C5
:1038040000000000000000000000000000000000B4
:1038140000000000000000000000000000000000A4
:103824000000000000000000000000000000000094
:103834000000000000000000000000000000000084
:103844000000000000000000000000000000000074
:043854000000000070
:043858003101000832
:04385C000D01000852
:103860000100000010000000029A083F029A083F81
:103870000A0000000024F4001C00002000000000EA
:103880000000000000000000000000000000000038
:103890000000000000000000000000000000000028
:1038A0000000000000000000000000000000000018
:1038B0000000000000000000000000000000000008
:1038C00000000000000000000000000000000000F8
:1038D00000000000000000000000000043000000A5
:1038E00000000000000000000000000000000000D8
:1038F0000000000000000000000000004300000085
:1039000000000000000000000000000000000000B7
:103910000000000000000000000000004300000064
:103920000000000000000000000000000000000097
:103930000000000000000000000000004300000044
:103940000000000000000000000000000000000077
:103950000000000000000000000000004300000024
:103960000000000000000000000000000000000057
:103970000000000000000000000000004300000004
:103980000000000000000000000000000000000037
:1039900000000000000000000000000043000000E4
:1039A0000000000000000000000000000000000017
:1039B000000000000000000000000000513400087A
:1039C000772E000800000000553700082037000857
:1039D000273700082737000827370008273700084F
:1039E000273700082737000827370008273700083F
:1039F00027370008FFFFFFFFFFFFFFFFFFFFFFFF6D
:103A0000FFFF00000100415343494900000000004E
:103A100000000000000000000000000000000000A6
:103A2000000000000000415343494900000000002D
:103A30000000000000000000000000000000000086
:083A400000000000000000007E
:0400000508002C556E
:00000001FF
