:020000040800F2
:1000000000500020011E00084D1D00084F1D000873
:10001000511D0008531D0008551D00080000000078
:10002000000000000000000000000000571D000854
:10003000591D0008000000005B1D00085D1D000840
:10004000491E0008491E0008491E0008491E0008F4
:10005000491E0008491E0008651D00086F1D0008A4
:10006000491E0008491E0008491E0008491E0008D4
:10007000491E0008491E0008491E0008491E0008C4
:10008000491E0008491E0008491E0008491E0008B4
:10009000491E0008491E0008491E0008791D000875
:1000A000851D0008951D0008491E0008491E00080E
:1000B000A51D0008491E0008491E0008491E000829
:1000C000491E0008491E0008491E0008491E000874
:1000D000491E0008491E0008491E0008491E000864
:1000E000491E0008491E0008491E000800000000C3
:1000F0000000000000000000000000000000000000
:0C01000000000000000000005FF808F1A3
:10010C0010B5054C237833B9044B13B10448AFF345
:10011C0000800123237010BD14000020000000009B
:10012C00A41E000808B5034B1BB103490348AFF3E9
:10013C00008008BD0000000018000020A41E00086C
:10014C0080F0004002E000BF81F0004142001FBF80
:10015C005FEA410392EA030F7FEA226C7FEA236C89
:10016C006AD04FEA1262D2EB1363C1BFD21841407E
:10017C0048404140B8BF5B42192B88BF704710F014
:10018C00004F40F4000020F07F4018BF404211F0B7
:10019C00004F41F4000121F07F4118BF494292EA1F
:1001AC00030F3FD0A2F1010241FA03FC10EB0C004B
:1001BC00C3F1200301FA03F100F0004302D54942D8
:1001CC0060EB4000B0F5000F13D3B0F1807F06D385
:1001DC0040084FEA310102F10102FE2A51D2B1F17D
:1001EC00004F40EBC25008BF20F0010040EA030072
:1001FC007047490040EB000010F4000FA2F101021F
:10020C00EDD1B0FA80FCACF1080CB2EB0C0200FAA8
:10021C000CF0AABF00EBC25052421843BCBFD040F6
:10022C001843704792F0000F81F4000106BF80F470
:10023C0000000132013BB5E74FEA41037FEA226C33
:10024C0018BF7FEA236C21D092EA030F04D092F0FE
:10025C00000F08BF0846704790EA010F1CBF002032
:10026C00704712F07F4F04D1400028BF40F000408F
:10027C00704712F100723CBF00F50000704700F0AF
:10028C00004343F0FE4040F4000070477FEA2262D6
:10029C0016BF08467FEA23630146420206BF5FEAA7
:1002AC00412390EA010F40F4800070474FF00003A7
:1002BC0004E000BF10F0004348BF40425FEA000C6E
:1002CC0008BF704743F0964301464FF000001CE016
:1002DC0050EA010208BF70474FF000030AE000BF6C
:1002EC0050EA010208BF704711F0004302D54042AA
:1002FC0061EB41015FEA010C02BF8446014600201C
:10030C0043F0B64308BFA3F18053A3F50003BCFA36
:10031C008CF2083AA3EBC25310DB01FA02FC6344E3
:10032C0000FA02FCC2F12002BCF1004F20FA02F2EA
:10033C0043EB020008BF20F00100704702F12002DD
:10034C0001FA02FCC2F1200250EA4C0021FA02F23E
:10035C0043EB020008BF20EADC7070474FF0FF0C43
:10036C001CEAD0521EBF1CEAD15392EA0C0F93EA3E
:10037C000C0F6FD01A4480EA010C400218BF5FEAE0
:10038C0041211ED04FF0006343EA501043EA511153
:10039C00A0FB01310CF00040B1F5000F3EBF49004D
:1003AC0041EAD3715B0040EA010062F17F02FD2A51
:1003BC001DD8B3F1004F40EBC25008BF20F0010034
:1003CC00704790F0000F0CF0004C08BF49024CEA4B
:1003DC00502040EA51207F3AC2BFD2F1FF0340EADD
:1003EC00C250704740F400004FF00003013A5DDC4E
:1003FC0012F1190FDCBF00F000407047C2F100028F
:10040C00410021FA02F1C2F1200200FA02FC5FEA7B
:10041C00310040F1000053EA4C0308BF20EADC70C5
:10042C00704792F0000F00F0004C02BF400010F437
:10043C00000F013AF9D040EA0C0093F0000F01F0E4
:10044C00004C02BF490011F4000F013BF9D041EA06
:10045C000C018FE70CEAD15392EA0C0F18BF93EA08
:10046C000C0F0AD030F0004C18BF31F0004CD8D132
:10047C0080EA010000F00040704790F0000F17BFB9
:10048C0090F0004F084691F0000F91F0004F14D0FF
:10049C0092EA0C0F01D142020FD193EA0C0F03D157
:1004AC004B0218BF084608D180EA010000F000405A
:1004BC0040F0FE4040F40000704740F0FE4040F435
:1004CC00400070474FF0FF0C1CEAD0521EBF1CEAD4
:1004DC00D15392EA0C0F93EA0C0F69D0A2EB0302F2
:1004EC0080EA010C49024FEA402037D04FF080538C
:1004FC0043EA111143EA10130CF000408B4238BF51
:10050C005B0042F17D024FF4000C8B4224BF5B1A5E
:10051C0040EA0C00B3EB510F24BFA3EB510340EAAC
:10052C005C00B3EB910F24BFA3EB910340EA9C005A
:10053C00B3EBD10F24BFA3EBD10340EADC001B01CA
:10054C0018BF5FEA1C1CE0D1FD2A3FF650AF8B426E
:10055C0040EBC25008BF20F0010070470CF0004C7B
:10056C004CEA50207F32C2BFD2F1FF0340EAC250A6
:10057C00704740F400004FF00003013A37E792F067
:10058C00000F00F0004C02BF400010F4000F013AC5
:10059C00F9D040EA0C0093F0000F01F0004C02BFC0
:1005AC00490011F4000F013BF9D041EA0C0195E729
:1005BC000CEAD15392EA0C0F08D142027FF47DAFC2
:1005CC0093EA0C0F7FF470AF084676E793EA0C0FB2
:1005DC0004D14B023FF44CAF08466EE730F0004CB0
:1005EC0018BF31F0004CCAD130F000427FF45CAF40
:1005FC0031F000437FF43CAF5FE700BF034613F8D4
:10060C00012B002AFBD1181A0138704710B504468B
:10061C000E4B18784FF47A73B3FBF0F30C4A106856
:10062C00B0FBF3F000F0A2F868B90F2C01D901204F
:10063C000AE0002221464FF0FF3000F055F8034B42
:10064C005C60002000E0012010BD00BF0000002015
:10065C001000002008B5074A136843F0100313601C
:10066C00032000F02FF80020FFF7D0FF01F0BCFAB8
:10067C00002008BD00200240034A1168034B1B7880
:10068C000B441360704700BF3000002000000020B6
:10069C00014B1868704700BF3000002038B5044685
:1006AC00FFF7F6FF0546B4F1FF3F02D0044B1B7871
:1006BC001C44FFF7EDFF401BA042FAD338BD00BF2E
:1006CC0000000020074AD36823F4E0631B041B0CD2
:1006DC00000200F4E060184340F0BF6040F40030CA
:1006EC00D060704700ED00E030B4174BDB68C3F30B
:1006FC000223C3F10704042C28BF04241D1D062D5E
:10070C0018D9033B4FF0FF3505FA04F421EA040134
:10071C00994005FA03F322EA0303194300280BDB83
:10072C000901C9B200F1604000F5614080F8001386
:10073C0030BC70470023E5E700F00F000901C9B297
:10074C00024B1954F4E700BF00ED00E014ED00E09B
:10075C00002807DB00F01F02400901239340024AE6
:10076C0042F82030704700BF00E100E00138B0F1E2
:10077C00807F0AD2064B5860064AF02182F823107B
:10078C000020986007221A6070470120704700BF54
:10079C0010E000E000ED00E0F0B482B0002632463C
:1007AC00A2E0002D5AD0012D00D1CE68FF2B69D8C4
:1007BC008446FF2B69D89500DCF800400F27AF402A
:1007CC0024EA070406FA05F52C43CCF800404C68E3
:1007DC0014F0805F00F087805F4CA56945F001053F
:1007EC00A561A46904F001040194019C9508AF1C57
:1007FC005A4C54F8274002F00307BF004FF00F0C7F
:10080C000CFA07FC24EA0C0C554CA04243D004F51E
:10081C008064A04200F0818004F58064A0427ED008
:10082C0004F58064A04234D0042435E04D4FBD4221
:10083C0014D00BD94C4FBD4210D007F58037BD42B8
:10084C000CD0A7F58017BD42B0D107E0A7F58017F3
:10085C00BD4203D007F58037BD42A7D18D687DB16D
:10086C00012D08D044610826A0E7CE6808369DE724
:10087C00CE680C369AE70461082697E7002695E7C0
:10088C00042693E700F1040C93E7A2F10805AD00F0
:10089C0092E7032400E00024BC4044EA0C04023537
:1008AC002E4F47F825404C6814F4803F39D02F4D1B
:1008BC002C681C432C604C6814F4003F37D02B4D33
:1008CC006C681C436C604C6814F4801F35D0274D49
:1008DC00AC681C43AC604C6814F4001F33D0234D3F
:1008EC00EC682343EB6001320B6833FA02F430D02E
:1008FC000124944023409C42F5D14D68122DB7D071
:10090C0094D8022DB1D07FF64CAF032DB6D0112D5B
:10091C007FF44CAFCE68043648E70124BCE70224D0
:10092C00BAE7124D2C6824EA03042C60C3E70F4D80
:10093C006C6824EA03046C60C5E70C4DAC6824EACF
:10094C000304AC60C7E7094DEC6824EA0303EB60D1
:10095C00C9E702B0F0BC7047001002400000014033
:10096C00000801400000211000003110000401407B
:10097C008368194201D1002070470120704712B9D9
:10098C0009040161704701617047000008B5054B0F
:10099C005B69034200D108BD024B586100F03CFF7B
:1009AC00F9E700BF0004014082B0084B1B68084AFD
:1009BC00A2FB03235B0A00FB03F0019000BF019B29
:1009CC005A1E0192002BF9D102B070471000002082
:1009DC00D34D6210002800F0F58170B582B004464A
:1009EC00036813F0010F2CD0AB4B5B6803F00C03C6
:1009FC00042B1DD0A84B5B6803F00C03082B12D002
:100A0C006368B3F5803F41D0002B55D103F180438F
:100A1C0003F504331A6822F480321A601A6822F43F
:100A2C0080221A6037E09C4B5B6813F4803FE7D060
:100A3C00994B1B6813F4003F03D06368002B00F044
:100A4C00C381236813F0020F76D0934B5B6813F0CD
:100A5C000C0F5FD0904B5B6803F00C03082B54D049
:100A6C002369002B00F08A808C4B01221A60FFF75F
:100A7C000FFE0546884B1B6813F0020F75D1FFF76C
:100A8C0007FE401B0228F5D90320A0E1824A136817
:100A9C0043F480331360636843B3FFF7F9FD0546F5
:100AAC007D4B1B6813F4003FCBD1FFF7F1FD401BCE
:100ABC006428F5D903208AE1B3F5A02F09D0764B31
:100ACC001A6822F480321A601A6822F480221A60A2
:100ADC00E1E703F18043A3F53C331A6842F480222A
:100AEC001A601A6842F480321A60D4E7FFF7D0FD1E
:100AFC000546694B1B6813F4003FA2D0FFF7C8FDF5
:100B0C00401B6428F5D9032061E1634B5B6813F447
:100B1C00803FA5D1604B1B6813F0020F04D02369F2
:100B2C00012B01D0012052E15B4A136823F0F8033A
:100B3C00616943EAC1031360236813F0080F32D0D4
:100B4C00A369002B5BD0564B01221A60FFF7A0FD66
:100B5C000546514B5B6A13F0020F21D1FFF798FD4C
:100B6C00401B0228F5D9032031E14B4A136823F0CE
:100B7C00F803616943EAC1031360DDE7474B0022C8
:100B8C001A60FFF785FD0546434B1B6813F0020FF7
:100B9C00D2D0FFF77DFD401B0228F5D9032016E1CA
:100BAC000120FFF701FF236813F0040F00F0988079
:100BBC00394BDB6913F0805F33D1374BDA6942F084
:100BCC008052DA61DB6903F080530193019B0125AC
:100BDC00344B1B6813F4807F25D0E368012B36D08F
:100BEC00002B4CD103F1804303F504331A6A22F035
:100BFC0001021A621A6A22F004021A622CE0284BD3
:100C0C0000221A60FFF744FD0546234B5B6A13F084
:100C1C00020FC8D0FFF73CFD401B0228F5D903207A
:100C2C00D5E00025D4E71F4A136843F480731360A2
:100C3C00FFF72EFD06461B4B1B6813F4807FCCD1AF
:100C4C00FFF726FD801B6428F5D90320BFE0124A6C
:100C5C00136A43F001031362E3687BB3FFF718FDDB
:100C6C0006460D4B1B6A13F0020F38D1FFF710FD2F
:100C7C00801B41F288339842F3D90320A7E0052B5F
:100C8C0012D0054B1A6A22F001021A621A6A22F07B
:100C9C0004021A62E0E700BF00100240000042426A
:100CAC0080044242007000404C4B1A6A42F004022D
:100CBC001A621A6A42F001021A62CDE7FFF7E8FCE9
:100CCC000646464B1B6A13F0020F08D0FFF7E0FCF8
:100CDC00801B41F288339842F3D9032077E0E5B9C1
:100CEC00E369002B72D03D4A526802F00C02082ACC
:100CFC0056D0022B17D03A4B00221A60FFF7C8FCD3
:100D0C000446364B1B6813F0007F47D0FFF7C0FC3E
:100D1C00001B0228F5D9032059E0304AD36923F08F
:100D2C008053D361DCE72E4B00221A60FFF7B0FC36
:100D3C0005462A4B1B6813F0007F06D0FFF7A8FC72
:100D4C00401B0228F5D9032041E0236AB3F5803F0C
:100D5C001AD022494B6823F47413226A606A024346
:100D6C0013434B601E4B01221A60FFF791FC0446A3
:100D7C001A4B1B6813F0007F0ED1FFF789FC001B88
:100D8C000228F5D9032022E0144A536823F40033D7
:100D9C00A1680B435360DCE7002018E0002016E04C
:100DAC00012B16D00D4B5B6803F48031226A914203
:100DBC0001D001200BE003F47013626A93420AD055
:100DCC00012004E001207047012000E0002002B067
:100DDC0070BD0120FBE70020F9E700BF00100240C6
:100DEC006000424210B487B0164C94E80F000DF12D
:100DFC00180C0CE90F00238AADF80430124B5B6819
:100E0C0003F00C02082A1AD1C3F38342624412F88D
:100E1C00102C13F4803F05D10C4800FB02F007B0F6
:100E2C0010BC7047084B5B68C3F34043634413F832
:100E3C00143C074800FB02F0B0FBF3F0EFE704486A
:100E4C00EDE700BFBC1E00080010024000093D0089
:100E5C0000127A00002800F0A38070B50446524BB3
:100E6C001B6803F007038B420CD24F4A136823F024
:100E7C0007030B431360136803F007038B4201D085
:100E8C00012070BD236813F0020F17D013F0040F6C
:100E9C0004D0464A536843F4E0635360236813F06C
:100EAC00080F04D0414A536843F4605353603F4ADF
:100EBC00536823F0F003A068034353600D46236886
:100ECC0013F0010F31D06368012B20D0022B25D0F9
:100EDC00364A126812F0020F64D034494A6822F084
:100EEC00030213434B60FFF7D3FB06462F4B5B68A3
:100EFC0003F00C036268B3EB820F16D0FFF7C8FB4C
:100F0C00801B41F288339842F0D90320B9E7274A75
:100F1C00126812F4003FE0D10120B2E7234A1268B4
:100F2C0012F0007FD9D10120ABE71F4B1B6803F0F7
:100F3C000703AB420CD91C4A136823F007032B435D
:100F4C001360136803F00703AB4201D0012098E74C
:100F5C00236813F0040F06D0144A536823F4E0639B
:100F6C00E1680B435360236813F0080F07D00F4A56
:100F7C00536823F46053216943EAC1035360FFF7BC
:100F8C0031FF0A4B5B68C3F30313094AD35CD840A7
:100F9C00084B1860084B1868FFF738FB002070E707
:100FAC000120704701206CE7002002400010024035
:100FBC00D01E00081000002004000020014B18680F
:100FCC00704700BF1000002008B5FFF7F7FF044B77
:100FDC005B68C3F30223034AD35CD84008BD00BF4F
:100FEC0000100240E01E000808B5FFF7E7FF044BB5
:100FFC005B68C3F3C223034AD35CD84008BD00BF6F
:10100C0000100240E01E000810B4036A046A24F0C9
:10101C0001040462846924F0F00444EA021223F00F
:10102C000A030B438261036210BC704710B4036A5D
:10103C0023F0100303628469036A24F4704444EAC5
:10104C00023223F0A00343EA01138261036210BC55
:10105C007047836823F07003194341F007018160E6
:10106C007047704770477047704710B50446036867
:10107C001A6912F0020F11D0DA6812F0020F0DD0BB
:10108C006FF002021A610123037703689B6913F066
:10109C00030F70D0FFF7E6FF0023237723681A694C
:1010AC0012F0040F12D0DA6812F0040F0ED06FF0A9
:1010BC0004021A610223237723689B6913F4407F8F
:1010CC005FD02046FFF7CEFF0023237723681A69F1
:1010DC0012F0080F12D0DA6812F0080F0ED06FF071
:1010EC0008021A61042323772368DB6913F0030FCA
:1010FC004ED02046FFF7B6FF0023237723681A69EA
:10110C0012F0100F12D0DA6812F0100F0ED06FF030
:10111C0010021A61082323772368DB6913F4407FDC
:10112C003DD02046FFF79EFF0023237723681A69E2
:10113C0012F0010F03D0DA6812F0010F36D12368D8
:10114C001A6912F0800F03D0DA6812F0800F34D1D4
:10115C0023681A6912F0400F03D0DA6812F0400FBE
:10116C0032D123681A6912F0200F03D0DA6812F01A
:10117C00200F30D110BDFFF774FF2046FFF773FF2F
:10118C008AE72046FFF76DFF2046FFF76CFF9BE7D1
:10119C002046FFF766FF2046FFF765FFACE72046C9
:1011AC00FFF75FFF2046FFF75EFFBDE76FF0010220
:1011BC001A61204600F0C2FCC1E76FF080021A6190
:1011CC00204600F0FEF8C3E76FF040021A6120469B
:1011DC00FFF74AFFC5E76FF020021A61204600F0C6
:1011EC00EFF8C7E703681B4A90420AD0B0F1804F72
:1011FC0007D0A2F59432904203D002F5806290425F
:10120C0003D123F070034A681343124A90420AD068
:10121C00B0F1804F07D0A2F59432904203D002F582
:10122C008062904203D123F44073CA68134323F0C5
:10123C0080034A69134303608B68C3620B68836243
:10124C00044B984202D00123436170470B6903633E
:10125C00F9E700BF002C0140A8B110B5044690F886
:10126C003D305BB1022384F83D30211D2068FFF72F
:10127C00B9FF012384F83D30002010BD80F83C30CC
:10128C0000F0D4FCEEE70120704710B4846824F41D
:10129C007F4442EA03230B432343836010BC704713
:1012AC0090F83C30012B66D010B50446012380F831
:1012BC003C30022380F83D300268936823F47F436E
:1012CC0023F0770393600B68402B4AD013D9602B23
:1012DC003DD01ED9702B28D0B3F5005F30D1CB6830
:1012EC004A6889680068FFF7D0FF2268936843F466
:1012FC008043936024E0102B06D004D9202B03D01C
:10130C00302B01D01CE0DBB919462068FFF7A1FE99
:10131C0016E0502B14D1CA6849680068FFF774FEB8
:10132C0050212068FFF795FE0AE0CB684A6889686F
:10133C000068FFF7AAFF2268936843F07703936075
:10134C00012384F83D30002084F83C0010BDCA68AD
:10135C0049680068FFF76AFE60212068FFF779FE94
:10136C00EEE7CA6849680068FFF74EFE4021206826
:10137C00FFF76FFEE4E70220704790F83C30012B3A
:10138C001CD070B4012680F83C60022380F83D30FC
:10139C0002685568936825F070050C682C4323F09F
:1013AC0080054B682B4354600268936080F83D6065
:1013BC00002380F83C30184670BC70470220704700
:1013CC007047704738B504460268136923F44053DC
:1013DC00C1680B43136183680269134342691A4362
:1013EC000168CB6823F4B05323F00C031343CB6098
:1013FC000268536923F4407381690B43536102689B
:10140C00214B9A421FD0FFF7DFFD00EB800000EB71
:10141C00800063689B00B0FBF3F01C4DA5FB003211
:10142C005109642202FB110213013233A5FB032381
:10143C005B0903F0F00202EB011203F00F032168C9
:10144C0013448B6038BDFFF7CFFD00EB800000EB41
:10145C00800063689B00B0FBF3F00C4DA5FB0032E1
:10146C005109642202FB110213013233A5FB032341
:10147C005B0903F0F00202EB011203F00F03216889
:10148C0013448B60DEE700BF003801401F85EB5131
:10149C002DE9F04105460F4616469846069C2B68EA
:1014AC001B6837EA03030CBF01230023B3421DD191
:1014BC00B4F1FF3FF3D02CB1FFF7EAF8A0EB080032
:1014CC00A042ECD92A68D36823F4D073D3602A687D
:1014DC00536923F001035361202385F8393085F8D3
:1014EC003A30002385F83830032000E00020BDE8B6
:1014FC00F08158B310B5044690F839300BB324235F
:10150C0084F839302268D36823F40053D360204622
:10151C00FFF758FF2268136923F490431361226884
:10152C00536923F02A0353612268D36843F40053B0
:10153C00D3600020E063202384F8393084F83A30FB
:10154C0010BD80F8383000F0C1FBD8E7012070479F
:10155C002DE9F04182B01E4690F83930DBB2202BD9
:10156C0055D104460D469046002955D0002A55D039
:10157C0090F83830012B53D0012380F838300023F9
:10158C00C363212380F83930FFF782F80746A4F8AB
:10159C002480A4F8268010E000963B46002280218F
:1015AC002046FFF775FF00283CD12B882268C3F337
:1015BC00080353602369C3B90235E38C9BB2B3B102
:1015CC00E38C013B9BB2E384A368B3F5805FE3D06B
:1015DC0000963B46002280212046FFF759FF18BB9E
:1015EC002A7823685A600135E7E70135E5E700966C
:1015FC003B46002240212046FFF74AFF0346A8B98C
:10160C00202284F83920002284F8382000E00223BC
:10161C00184602B0BDE8F0810123F9E70123F7E792
:10162C000223F5E70323F3E70323F1E70323EFE7B3
:10163C00F0B587B000240294039404940594274BCE
:10164C009A6942F004029A619A6902F004020092CB
:10165C00009A9A6942F008029A619B6903F00803A8
:10166C000193019B1E4E012240213046FFF787F962
:10167C00402302930125039504940223059302A9A8
:10168C003046FFF789F880230293164F0397049591
:10169C0002A93046FFF780F80323029303970495C1
:1016AC0002A91148FFF778F8224621460620FFF7D9
:1016BC001BF80620FFF74CF8224621460720FFF7BF
:1016CC0013F80720FFF744F8224621461720FFF7AE
:1016DC000BF81720FFF73CF807B0F0BD00100240E4
:1016EC000008014000002110000C014008B508481A
:1016FC00084B03604FF41653436000238360C360B0
:10170C0003610C2242618361C361FFF7F2FE08BDE5
:10171C00340100200044004030B587B0002402940E
:10172C00039404940594009401940F4D0F4B2B607B
:10173C0042F20F736B60AC60F023EB602C616C6158
:10174C00AC612846FFF788FD4FF48053029302A941
:10175C002846FFF7A5FD0094019469462846FFF73B
:10176C000CFE07B030BD00BFA0000020002C0140D3
:10177C0030B587B00024029403940494059400942B
:10178C0001940F4D4FF080432B6042F20F736B604E
:10179C00AC605023EB602C61AC612846FFF75CFD1C
:1017AC004FF48053029302A92846FFF779FD009469
:1017BC00019469462846FFF7E0FD07B030BD00BF35
:1017CC00F000002030B587B00024029403940494F8
:1017DC000594009401940E4D0E4B2B6007236B6007
:1017EC00AC604FF6FE73EB602C61AC612846FFF7E2
:1017FC0033FD4FF48053029302A92846FFF750FDA6
:10180C000094019469462846FFF7B7FD07B030BD38
:10181C004800002000040040802804D0012807D094
:10182C0002280AD07047074A136801331360F5E7A2
:10183C00054A136801331360F2E7044A1368013355
:10184C001360EFE7900000208C0000204400002083
:10185C0038B505460C460846FEF7D0FE4FF47A73B1
:10186C0082B221462846FFF773FE38BD034B1A6837
:10187C0000235362536A8342FCD370474800002014
:10188C0000B585B0402300930123019302230393F9
:10189C0069460348FEF780FF05B05DF804FB00BF06
:1018AC000008014000B585B040230093002301934C
:1018BC00029369460248FEF76FFF05B05DF804FB22
:1018CC000008014008B5FFF7DBFF00224021054866
:1018DC00FFF755F844F25060FFF7C8FFFFF7E2FF3F
:1018EC0008BD00BF0008014010B52820FFF7BEFF5F
:1018FC0040210C48FFF73CF840B100244021094836
:10190C00FFF736F80028F9D1204610BD5020FFF71C
:10191C00ADFF40210348FFF72BF808B10124EDE798
:10192C00FF24EBE70008014038B500240DE0C4F1BA
:10193C000703012098402843C5B240211048FFF707
:10194C0017F80028F9D10134E4B2072C16D840213D
:10195C000B48FFF70DF80028F9D02820FFF786FF79
:10196C0040210748FFF704F80028E0D1C4F1070331
:10197C000120984025EA0000C5B2DEE7284638BDB4
:10198C000008014008B5FFF79DFFFFF7ADFFFFF71B
:10199C00CBFF0B4B1870FFF7C7FF0A4B1870FFF704
:1019AC00C3FF094B1870FFF7BFFF084B1870FFF708
:1019BC00BBFF074B18804FF4FA70FEF76FFE08BDA3
:1019CC003E0000209C0000209400002078010020A4
:1019DC003C00002038B50D4B1868FEF76BFC0C4C26
:1019EC002168FEF7BBFC05460A4B1868FEF762FC43
:1019FC006168FEF7B3FC01462846FEF7A5FB0649D5
:101A0C00FEF760FD054B186038BD00BF900000204C
:101A1C00080000208C00002000007A44E400002024
:101A2C0070B50446164B1868164B1B68C01AFEF7A7
:101A3C0041FC154D2968FEF791FC0646134B1868BE
:101A4C00134B1B68C01AFEF735FC6968FEF786FC61
:101A5C000546104880FB0430E417C4EB2050FEF719
:101A6C0029FC044629463046FEF76EFB0A49FEF770
:101A7C0029FD2146FEF726FD084B186070BD00BFFE
:101A8C0038000020900000200800002030010020C9
:101A9C008C00002059BE904A00007A44340000208B
:101AAC0010B50B4B1B680B4A106800FB03F0FEF7DC
:101ABC0001FC0949FEF706FD0446084B1868FEF7C1
:101ACC00F9FB2146FEF74AFC054B186010BD00BF20
:101ADC0074010020EC000020002474494400002014
:101AEC007C01002038B50F4B1C680F4B1B68E31AA8
:101AFC000E4A146804FB03F40D4BA3FB0434A40935
:101B0C000C4B83FB0023C017C0EB2350FEF7D2FB1A
:101B1C0005462046FEF7CEFB2946FEF7D3FC064BC6
:101B2C00186038BD8001002044000020EC0000202B
:101B3C00D34D621059BE904A9800002010B504464F
:101B4C0002680A4B9A4204D02368B3F1804F05D047
:101B5C0010BD07490748FFF77BFEF5E76420FFF748
:101B6C005FFF6420FFF7BEFFF2E700BF002C0140CF
:101B7C00EC1E00083401002010B590B02422002186
:101B8C0007A800F081F900240194029403940494B2
:101B9C0005940223069301230A9310230B9306A8A2
:101BAC00FEF718FF0F2301930294039404940594F9
:101BBC00214601A8FFF74EF910B010BD08B5FEF78D
:101BCC0049FDFFF7D9FFFFF733FDFFF78FFDFFF757
:101BDC00A3FDFFF7CDFDFFF7F5FDFFF761FFFFF765
:101BEC00F9FEFFF7CFFEF8E782B00E4B9A6942F090
:101BFC0001029A619A6902F001020092009ADA6974
:101C0C0042F08052DA61DB6903F080530193019B4F
:101C1C00054A536823F0E06343F08063536002B0DD
:101C2C00704700BF001002400000014000B585B0B5
:101C3C000368234A934208D0B3F1804F20D0214A45
:101C4C00934231D005B05DF804FB1F4B9A6942F406
:101C5C0000629A619B6903F400630193019B00226B
:101C6C0011461820FEF740FD1820FEF771FD0022EA
:101C7C0011461920FEF738FD1920FEF769FDE1E742
:101C8C0003F50433DA6942F00102DA61DB6903F02F
:101C9C0001030293029B002211461C20FEF724FD37
:101CAC001C20FEF755FDCDE7074BDA6942F0020226
:101CBC00DA61DB6903F002030393039BC2E700BF05
:101CCC00002C0140000400400010024010B586B00A
:101CDC00002302930393049305930268164B9A42D4
:101CEC0001D006B010BD03F5E633DA6942F40032D8
:101CFC00DA61DA6902F400320092009A9A6942F0D1
:101D0C0004029A619B6903F004030193019B042371
:101D1C0002930223039303230593084C02A9204644
:101D2C00FEF73AFD0823029300230393049302A9C0
:101D3C002046FEF731FDD4E7004400400008014086
:101D4C007047FEE7FEE7FEE7FEE770477047704717
:101D5C0008B5FEF791FC08BD08B50120FEF716FE8C
:101D6C0008BD08B50220FEF711FE08BD08B580209D
:101D7C00FEF70CFE08BD000008B50248FFF775F928
:101D8C0008BD00BFA000002008B50248FFF76DF9A0
:101D9C0008BD00BFA000002008B50248FFF765F998
:101DAC0008BD00BFF00000200F4B1A6842F0010282
:101DBC001A6059680D4A0A405A601A6822F08472F7
:101DCC0022F480321A601A6822F480221A605A684F
:101DDC0022F4FE025A604FF41F029A60044B4FF03B
:101DEC0000629A60704700BF001002400000FFF8CC
:101DFC0000ED00E0002103E00B4B5B584350043135
:101E0C000A480B4B42189A42F6D30A4A02E00023C6
:101E1C0042F8043B084B9A42F9D3FFF7C5FF00F098
:101E2C000FF8FFF7CBFE7047FC1E000800000020E7
:101E3C00140000201400002084010020FEE70000A4
:101E4C0070B500250C4E0D4CA41BA410A54209D155
:101E5C0000F022F800250A4E0A4CA41BA410A5423F
:101E6C0005D170BD56F8253098470135EEE756F888
:101E7C00253098470135F2E7F41E0008F41E0008DF
:101E8C00F41E0008F81E000803460244934200D1D9
:101E9C00704703F8011BF9E7F8B500BFF8BC08BCA4
:101EAC009E467047F8B500BFF8BC08BC9E4670470C
:101EBC0002030405060708090A0B0C0D0E0F10107F
:101ECC0001020000000000000000000001020304F9
:101EDC000607080900000000010203040D0A0000B7
:081EEC0074656B7374000000C3
:041EF40031010008B0
:041EF8000D010008D0
:101EFC000100000010000000029A083F029A083FFF
:041F0C000024F400B9
:0400000508001E01D0
:00000001FF
